S021000049324320436F6D6D756E69636174696F6E2028536C617665292E7372656363
S113000071C000008EC000008CC000008AC00000D7
S113001088C0000086C0000084C0000082C00000C8
S113002080C000007EC000007CC000007AC00000D8
S113003078C0000076C0000074C0000055C1000004
S113004070C000006EC000006CC000006AC00000F8
S113005068C0000066C0000064C0000062C0000008
S113006060C000005FC100008CC100005AC00000E5
S113007058C0000056C0000054C0000052C0000028
S113008050C000004EC000004CC000004AC0000038
S11300900AC2000037C2000044C0000042C0000091
S11300A040C000003EC000003CC000003AC0000058
S11300B038C0000036C0000034C0000032C0000068
S11300C030C000002EC000002CC0000049C2000057
S11300D076C2000026C00000A0C20000CDC200000D
S11300E020C0000011241FBECFEFD1E2DEBFCDBF80
S11300F000E00CBF12E0A0E0B2E0EEE3F7E000E0C5
S11301000BBF02C007900D92A430B107D9F723E0CA
S1130110A4E0B2E001C01D92AA31B207E1F702D017
S11301200CC36ECFCF93DF93CDB7DEB72A970FB64C
S1130130F894DEBF0FBECDBF87E690E050D14BD020
S113014080E250D078947E018AE0E80EF11C5E01D2
S11301509BE0A90EB11C49D06AE0CE010196A0D063
S1130160898190E06AD180E253D1DE0111966D015C
S11301708D01F801818190810F5F1F4F891721F054
S113018090E05BD180E244D10E151F0591F781E028
S113019092E07BD1F60111926F01EA15FB05D9F2C9
S11301A0F9CFE0E7F0E08081816080830895E1EB9E
S11301B0F0E08081876080831092B2001092040284
S11301C00895E1EBF0E09081108290910402911186
S11301D08093000208951092B90088E48093B800D7
S11301E0E0CF08958093BA00089584EC8093BC0016
S11301F0DEDFECEBF0E08081882324F080910402C0
S11302008823C9F38DE4DDDF9091B900987F81E004
S1130210903609F480E0089584EC8093BC00C7DF35
S1130220ECEBF0E08081882374F08091040281116A
S11302300AC0F8CF8081887F803859F08091040209
S1130240811107C0F7CF82E5BCDFB1DFE9EBF0E055
S1130250F1CF82E5B6DF8091BB00089584E88093F6
S1130260BC00A5DFECEBF0E08081882374F0809182
S1130270040281110AC0F8CF8081887F883859F040
S113028080910402811107C0F7CF82E79ADF8FDFE4
S1130290E9EBF0E0F1CF82E794DF8091BB000895B1
S11302A0EF92FF920F931F93CF93DF93DFEFD60F5D
S11302B0662391F08C017C01CD2FC11107C0C801C8
S11302C08D0F911DEC01CADF888306C0A5DFF701FD
S11302D081937F01C150F1CF80E0DF91CF911F91D5
S11302E00F91FF90EF9008951F920F920FB60F9207
S11302F011248F9380910502833021F080910502AF
S11303008F5F01C080E080930502809105028330F5
S113031019F481E0809304028F910F900FBE0F9027
S11303201F9018951F920F920FB60F9211240BB6BF
S11303300F922F938F939F93EF93FF938091C0001D
S11303402091C6008871E091D702EF5FEF71909120
S1130350D602E91739F0E093D702F0E0E652FD4FF8
S1130360208301C082E08093D502FF91EF919F9199
S11303708F912F910F900BBE0F900FBE0F901F9077
S113038018951F920F920FB60F9211240BB60F926D
S11303908F939F93EF93FF939091D9028091D8020A
S11303A0981769F0E091D802EF5FEF71E093D802FB
S11303B0F0E0E650FD4F80818093C60005C0E1EC7B
S11303C0F0E080818F7D8083FF91EF919F918F91E9
S11303D00F900BBE0F900FBE0F901F9018951092A8
S11303E0D9021092D8021092D7021092D602992301
S11303F024F422E02093C0009F779093C50080935B
S1130400C40088E98093C10086E08093C200089507
S11304102091D9022F5F2F719091D8022917E1F30F
S1130420E22FF0E0E650FD4F80832093D902E1EC07
S1130430F0E080818062808308950F931F93CF93AF
S1130440DF93CDB7DEB72F970FB6F894DEBF0FBE9C
S1130450CDBF4AE0BE016F5F7F4F3CD189818823C5
S113046049F08E010E5F1F4FD3DFF80181918F0198
S11304708111FACF2F960FB6F894DEBF0FBECDBF11
S1130480DF91CF911F910F910895CF93DF93EC01EA
S11304908881882329F02196BBDF89918111FCCFC3
S11304A0DF91CF9108951F920F920FB60F921124EE
S11304B00BB60F922F938F939F93EF93FF9380919B
S11304C0C8002091CE008871E0919202EF5FEF7135
S11304D090919102E91739F0E0939202F0E0EB5623
S11304E0FD4F208301C082E080939002FF91EF9141
S11304F09F918F912F910F900BBE0F900FBE0F9075
S11305001F9018951F920F920FB60F9211240BB6DD
S11305100F928F939F93EF93FF9390919402809106
S11305209302981769F0E0919302EF5FEF71E09303
S11305309302F0E0EB54FD4F80818093CE0005C020
S1130540E9ECF0E080818F7D8083FF91EF919F91B2
S11305508F910F900BBE0F900FBE0F901F901895A8
S11305601F920F920FB60F9211240BB60F922F9376
S11305708F939F93EF93FF938091D0002091D600A7
S11305808871E0914D02EF5FEF7190914C02E91791
S113059039F0E0934D02F0E0E05BFD4F208301C0B1
S11305A082E080934B02FF91EF919F918F912F9165
S11305B00F900BBE0F900FBE0F901F9018951F92B7
S11305C00F920FB60F9211240BB60F928F939F9335
S11305D0EF93FF9390914F0280914E02981769F028
S11305E0E0914E02EF5FEF71E0934E02F0E0E059CC
S11305F0FD4F80818093D60005C0E1EDF0E080815D
S11306008F7D8083FF91EF919F918F910F900BBE0F
S11306100F900FBE0F901F9018951F920F920FB658
S11306200F9211240BB60F922F938F939F93EF93F6
S1130630FF9380913001209136018871E091080286
S1130640EF5FEF7190910702E91739F0E093080228
S1130650F0E0E55FFD4F208301C082E08093060255
S1130660FF91EF919F918F912F910F900BBE0F905F
S11306700FBE0F901F9018951F920F920FB60F92F6
S113068011240BB60F928F939F93EF93FF93909146
S11306900A0280910902981769F0E0910902EF5F5C
S11306A0EF71E0930902F0E0E55DFD4F80818093F6
S11306B0360105C0E1E3F1E080818F7D8083FF9105
S11306C0EF919F918F910F900BBE0F900FBE0F90E3
S11306D01F901895BB274A3031F4992322F4BDE2C8
S11306E0909581959F4F01C0BB27FB015527AA27F1
S11306F0880F991FAA1FA41710F0A41B83955051AB
S1130700B9F7A05DAA3308F0A95DA193009779F722
S1130710B111B1931192CB0100C0DC01FC01672F30
S113072071917723E1F7329704C07C916D937083C4
S11107306291AE17BF07C8F30895F894FFCF87
S107073E7A0D0A0022
S9030000FC
