:1000000071C000008EC000008CC000008AC00000DB
:1000100088C0000086C0000084C0000082C00000CC
:1000200080C000007EC000007CC000007AC00000DC
:1000300078C0000076C0000074C0000053C100000A
:1000400070C000006EC000006CC000006AC00000FC
:1000500068C0000066C0000064C0000062C000000C
:1000600060C000005DC100008AC100005AC00000ED
:1000700058C0000056C0000054C0000052C000002C
:1000800050C000004EC000004CC000004AC000003C
:1000900008C2000035C2000044C0000042C0000099
:1000A00040C000003EC000003CC000003AC000005C
:1000B00038C0000036C0000034C0000032C000006C
:1000C00030C000002EC000002CC0000047C200005D
:1000D00074C2000026C000009EC20000CBC2000017
:1000E00020C0000011241FBECFEFD1E2DEBFCDBF84
:1000F00000E00CBF12E0A0E0B2E0EAE3F7E000E0CD
:100100000BBF02C007900D92AE30B107D9F723E0C4
:10011000AEE0B2E001C01D92A432B207E1F702D016
:100120000AC36ECFCF93DF93CDB7DEB72A970FB652
:10013000F894DEBF0FBECDBF8AE0E1E0F2E0DE0161
:10014000119601900D928A95E1F787E690E045D1EE
:1001500032D0789480E236D06AE0CE010196A9D000
:10016000182F74D0812F90E066D180E24FD18BE0C0
:1001700092E089D18FE39CE90197F1F700C000007C
:10018000E9CFE0E7F0E08081816080830895E1EBD2
:10019000F0E08081876080831092B20010920E029E
:1001A0000895E1EBF0E09081108290910E029111A0
:1001B0008093000208951092B90088E48093B800FB
:1001C000E0CF0895CF93C82F84EA8093BC00DFDF8F
:1001D000ECEBF0E0808188233CF180910E028111EC
:1001E00023C0F8CF8091B900887F8031D9F423C033
:1001F000808190910E028095881F8827881F89171B
:10020000B8F783E5CEDF8091B900887F883141F06F
:100210009091B900987F81E09034B1F480E014C0EF
:1002200080E012C081E010C083E5BBDF8091B9009F
:10023000887F8830B9F6C093BB0084E88093BC0007
:10024000A6DFECEBF0E0D4CFCF91089584E9809362
:10025000BC009DDFECEBF0E0808184FF04C0809166
:100260000E028823C9F383E79CCF08958093BB00D7
:1002700084E88093BC008BDFECEBF0E08081882386
:1002800074F080910E0281110AC0F8CF8081887FBE
:10029000883259F080910E028111F8CF06C087E5AF
:1002A00080DF75DFE9EBF0E0F1CF87E57ADF80E012
:1002B00008950F931F93CF93CFEFC60F8C0101C00A
:1002C000C92FCF3F49F0F80181918F01CFDF9FEF18
:1002D0009C0F8823A9F301C0C0E08C2FCF911F9100
:1002E0000F9108951F920F920FB60F9211248F93C2
:1002F00080910F02833021F080910F028F5F01C047
:1003000080E080930F0280910F02833019F481E026
:1003100080930E028F910F900FBE0F901F90189533
:100320001F920F920FB60F9211240BB60F922F93BC
:100330008F939F93EF93FF938091C0002091C6000D
:100340008871E091E102EF5FEF719091E002E917AF
:1003500039F0E093E102F0E0EC51FD4F208301C061
:1003600082E08093DF02FF91EF919F918F912F9117
:100370000F900BBE0F900FBE0F901F9018951F92FD
:100380000F920FB60F9211240BB60F928F939F937B
:10039000EF93FF939091E3028091E202981769F046
:1003A000E091E202EF5FEF71E093E202F0E0EC5FD8
:1003B000FC4F80818093C60005C0E1ECF0E08081B5
:1003C0008F7D8083FF91EF919F918F910F900BBE56
:1003D0000F900FBE0F901F9018951092E30210928D
:1003E000E2021092E1021092E002992324F422E04A
:1003F0002093C0009F779093C5008093C40088E944
:100400008093C10086E08093C20008952091E302AA
:100410002F5F2F719091E2022917E1F3E22FF0E0B4
:10042000EC5FFC4F80832093E302E1ECF0E08081FD
:100430008062808308950F931F93CF93DF93CDB78E
:10044000DEB72F970FB6F894DEBF0FBECDBF4AE0E0
:10045000BE016F5F7F4F3CD18981882349F08E01B7
:100460000E5F1F4FD3DFF80181918F018111FACF09
:100470002F960FB6F894DEBF0FBECDBFDF91CF91A0
:100480001F910F910895CF93DF93EC01888188230A
:1004900029F02196BBDF89918111FCCFDF91CF91AB
:1004A00008951F920F920FB60F9211240BB60F9260
:1004B0002F938F939F93EF93FF938091C800209188
:1004C000CE008871E0919C02EF5FEF7190919B02EA
:1004D000E91739F0E0939C02F0E0E156FD4F2083EC
:1004E00001C082E080939A02FF91EF919F918F91DA
:1004F0002F910F900BBE0F900FBE0F901F9018956D
:100500001F920F920FB60F9211240BB60F928F937A
:100510009F93EF93FF9390919E0280919D02981775
:1005200069F0E0919D02EF5FEF71E0939D02F0E0D2
:10053000E154FD4F80818093CE0005C0E9ECF0E0EE
:1005400080818F7D8083FF91EF919F918F910F909C
:100550000BBE0F900FBE0F901F9018951F920F9219
:100560000FB60F9211240BB60F922F938F939F9378
:10057000EF93FF938091D0002091D6008871E09195
:100580005702EF5FEF7190915602E91739F0E0934F
:100590005702F0E0E65AFD4F208301C082E08093CD
:1005A0005502FF91EF919F918F912F910F900BBE6C
:1005B0000F900FBE0F901F9018951F920F920FB6BD
:1005C0000F9211240BB60F928F939F93EF93FF938B
:1005D0009091590280915802981769F0E091580261
:1005E000EF5FEF71E0935802F0E0E658FD4F808135
:1005F0008093D60005C0E1EDF0E080818F7D80839F
:10060000FF91EF919F918F910F900BBE0F900FBEB6
:100610000F901F9018951F920F920FB60F921124F2
:100620000BB60F922F938F939F93EF93FF9380912D
:100630003001209136018871E0911202EF5FEF7175
:1006400090911102E91739F0E0931202F0E0EB5EAD
:10065000FD4F208301C082E080931002FF91EF9153
:100660009F918F912F910F900BBE0F900FBE0F9007
:100670001F9018951F920F920FB60F9211240BB670
:100680000F928F939F93EF93FF9390911402809119
:100690001302981769F0E0911302EF5FEF71E09396
:1006A0001302F0E0EB5CFD4F80818093360105C0C2
:1006B000E1E3F1E080818F7D8083FF91EF919F9155
:1006C0008F910F900BBE0F900FBE0F901F9018953B
:1006D000BB274A3031F4992322F4BDE290958195ED
:1006E0009F4F01C0BB27FB015527AA27880F991FE1
:1006F000AA1FA41710F0A41B83955051B9F7A05D51
:10070000AA3308F0A95DA193009779F7B111B193CD
:100710001192CB0100C0DC01FC01672F719177239E
:10072000E1F7329704C07C916D9370836291AE17AC
:0A073000BF07C8F30895F894FFCF47
:0E073A007A15161718191A1B1C1D1E0D0A0021
:00000001FF
